{
  "abi": [
    {
      "inputs": [
        {
          "internalType": "address",
          "name": "USDTAddr",
          "type": "address"
        },
        {
          "internalType": "address",
          "name": "key",
          "type": "address"
        }
      ],
      "stateMutability": "nonpayable",
      "type": "constructor"
    },
    {
      "anonymous": false,
      "inputs": [
        {
          "indexed": true,
          "internalType": "address",
          "name": "owner",
          "type": "address"
        },
        {
          "indexed": true,
          "internalType": "address",
          "name": "spender",
          "type": "address"
        },
        {
          "indexed": false,
          "internalType": "uint256",
          "name": "value",
          "type": "uint256"
        }
      ],
      "name": "Approval",
      "type": "event"
    },
    {
      "anonymous": false,
      "inputs": [
        {
          "indexed": true,
          "internalType": "address",
          "name": "sender",
          "type": "address"
        },
        {
          "indexed": true,
          "internalType": "address",
          "name": "origin",
          "type": "address"
        },
        {
          "indexed": false,
          "internalType": "uint256",
          "name": "amount",
          "type": "uint256"
        }
      ],
      "name": "Burn",
      "type": "event"
    },
    {
      "anonymous": false,
      "inputs": [
        {
          "indexed": true,
          "internalType": "address",
          "name": "previousOwner",
          "type": "address"
        },
        {
          "indexed": true,
          "internalType": "address",
          "name": "newOwner",
          "type": "address"
        }
      ],
      "name": "OwnershipTransferred",
      "type": "event"
    },
    {
      "anonymous": false,
      "inputs": [
        {
          "indexed": true,
          "internalType": "address",
          "name": "owner",
          "type": "address"
        },
        {
          "indexed": false,
          "internalType": "uint256",
          "name": "amountL2FIIn",
          "type": "uint256"
        },
        {
          "indexed": false,
          "internalType": "uint256",
          "name": "amountUSDTOut",
          "type": "uint256"
        }
      ],
      "name": "Swap",
      "type": "event"
    },
    {
      "anonymous": false,
      "inputs": [
        {
          "indexed": true,
          "internalType": "address",
          "name": "owner",
          "type": "address"
        },
        {
          "indexed": false,
          "internalType": "uint256",
          "name": "amountUSDTIn",
          "type": "uint256"
        },
        {
          "indexed": false,
          "internalType": "uint256",
          "name": "amountL2FIOut",
          "type": "uint256"
        },
        {
          "indexed": false,
          "internalType": "uint256",
          "name": "random",
          "type": "uint256"
        }
      ],
      "name": "SwapReverse",
      "type": "event"
    },
    {
      "anonymous": false,
      "inputs": [
        {
          "indexed": true,
          "internalType": "address",
          "name": "owner",
          "type": "address"
        },
        {
          "indexed": false,
          "internalType": "uint256",
          "name": "amountUSDTIn",
          "type": "uint256"
        },
        {
          "indexed": false,
          "internalType": "uint256",
          "name": "amountL2FIOut",
          "type": "uint256"
        },
        {
          "indexed": false,
          "internalType": "address",
          "name": "to",
          "type": "address"
        }
      ],
      "name": "SwapReverseForOpen",
      "type": "event"
    },
    {
      "anonymous": false,
      "inputs": [
        {
          "indexed": true,
          "internalType": "address",
          "name": "from",
          "type": "address"
        },
        {
          "indexed": true,
          "internalType": "address",
          "name": "to",
          "type": "address"
        },
        {
          "indexed": false,
          "internalType": "uint256",
          "name": "value",
          "type": "uint256"
        }
      ],
      "name": "Transfer",
      "type": "event"
    },
    {
      "inputs": [],
      "name": "_decimals",
      "outputs": [
        {
          "internalType": "uint8",
          "name": "",
          "type": "uint8"
        }
      ],
      "stateMutability": "view",
      "type": "function"
    },
    {
      "inputs": [],
      "name": "_key",
      "outputs": [
        {
          "internalType": "address",
          "name": "",
          "type": "address"
        }
      ],
      "stateMutability": "view",
      "type": "function"
    },
    {
      "inputs": [],
      "name": "_name",
      "outputs": [
        {
          "internalType": "string",
          "name": "",
          "type": "string"
        }
      ],
      "stateMutability": "view",
      "type": "function"
    },
    {
      "inputs": [],
      "name": "_open",
      "outputs": [
        {
          "internalType": "bool",
          "name": "",
          "type": "bool"
        }
      ],
      "stateMutability": "view",
      "type": "function"
    },
    {
      "inputs": [],
      "name": "_symbol",
      "outputs": [
        {
          "internalType": "string",
          "name": "",
          "type": "string"
        }
      ],
      "stateMutability": "view",
      "type": "function"
    },
    {
      "inputs": [],
      "name": "_usdtAddr",
      "outputs": [
        {
          "internalType": "address",
          "name": "",
          "type": "address"
        }
      ],
      "stateMutability": "view",
      "type": "function"
    },
    {
      "inputs": [
        {
          "internalType": "address",
          "name": "owner",
          "type": "address"
        },
        {
          "internalType": "address",
          "name": "spender",
          "type": "address"
        }
      ],
      "name": "allowance",
      "outputs": [
        {
          "internalType": "uint256",
          "name": "",
          "type": "uint256"
        }
      ],
      "stateMutability": "view",
      "type": "function"
    },
    {
      "inputs": [
        {
          "internalType": "address",
          "name": "spender",
          "type": "address"
        },
        {
          "internalType": "uint256",
          "name": "amount",
          "type": "uint256"
        }
      ],
      "name": "approve",
      "outputs": [
        {
          "internalType": "bool",
          "name": "",
          "type": "bool"
        }
      ],
      "stateMutability": "nonpayable",
      "type": "function"
    },
    {
      "inputs": [
        {
          "internalType": "address",
          "name": "account",
          "type": "address"
        }
      ],
      "name": "balanceOf",
      "outputs": [
        {
          "internalType": "uint256",
          "name": "",
          "type": "uint256"
        }
      ],
      "stateMutability": "view",
      "type": "function"
    },
    {
      "inputs": [
        {
          "internalType": "uint256",
          "name": "amount",
          "type": "uint256"
        }
      ],
      "name": "burn",
      "outputs": [
        {
          "internalType": "bool",
          "name": "",
          "type": "bool"
        }
      ],
      "stateMutability": "nonpayable",
      "type": "function"
    },
    {
      "inputs": [],
      "name": "decimals",
      "outputs": [
        {
          "internalType": "uint8",
          "name": "",
          "type": "uint8"
        }
      ],
      "stateMutability": "view",
      "type": "function"
    },
    {
      "inputs": [
        {
          "internalType": "address",
          "name": "spender",
          "type": "address"
        },
        {
          "internalType": "uint256",
          "name": "subtractedValue",
          "type": "uint256"
        }
      ],
      "name": "decreaseAllowance",
      "outputs": [
        {
          "internalType": "bool",
          "name": "",
          "type": "bool"
        }
      ],
      "stateMutability": "nonpayable",
      "type": "function"
    },
    {
      "inputs": [
        {
          "internalType": "uint256",
          "name": "amountUSDTIn",
          "type": "uint256"
        }
      ],
      "name": "estimatedL2FIOut",
      "outputs": [
        {
          "internalType": "uint256",
          "name": "amountL2FIOut",
          "type": "uint256"
        }
      ],
      "stateMutability": "view",
      "type": "function"
    },
    {
      "inputs": [
        {
          "internalType": "uint256",
          "name": "amountL2FIIn",
          "type": "uint256"
        }
      ],
      "name": "estimatedUSDTOut",
      "outputs": [
        {
          "internalType": "uint256",
          "name": "amountUSDTOut",
          "type": "uint256"
        }
      ],
      "stateMutability": "view",
      "type": "function"
    },
    {
      "inputs": [
        {
          "internalType": "address",
          "name": "",
          "type": "address"
        }
      ],
      "name": "excludeFee",
      "outputs": [
        {
          "internalType": "bool",
          "name": "",
          "type": "bool"
        }
      ],
      "stateMutability": "view",
      "type": "function"
    },
    {
      "inputs": [],
      "name": "getOwner",
      "outputs": [
        {
          "internalType": "address",
          "name": "",
          "type": "address"
        }
      ],
      "stateMutability": "view",
      "type": "function"
    },
    {
      "inputs": [],
      "name": "getReserves",
      "outputs": [
        {
          "internalType": "uint256",
          "name": "poolL2FIBal",
          "type": "uint256"
        },
        {
          "internalType": "uint256",
          "name": "poolUSDTBal",
          "type": "uint256"
        },
        {
          "internalType": "uint256",
          "name": "blockTimestamp",
          "type": "uint256"
        }
      ],
      "stateMutability": "view",
      "type": "function"
    },
    {
      "inputs": [
        {
          "internalType": "address",
          "name": "spender",
          "type": "address"
        },
        {
          "internalType": "uint256",
          "name": "addedValue",
          "type": "uint256"
        }
      ],
      "name": "increaseAllowance",
      "outputs": [
        {
          "internalType": "bool",
          "name": "",
          "type": "bool"
        }
      ],
      "stateMutability": "nonpayable",
      "type": "function"
    },
    {
      "inputs": [],
      "name": "name",
      "outputs": [
        {
          "internalType": "string",
          "name": "",
          "type": "string"
        }
      ],
      "stateMutability": "view",
      "type": "function"
    },
    {
      "inputs": [
        {
          "internalType": "bool",
          "name": "_state",
          "type": "bool"
        }
      ],
      "name": "open",
      "outputs": [],
      "stateMutability": "nonpayable",
      "type": "function"
    },
    {
      "inputs": [],
      "name": "owner",
      "outputs": [
        {
          "internalType": "address",
          "name": "",
          "type": "address"
        }
      ],
      "stateMutability": "view",
      "type": "function"
    },
    {
      "inputs": [],
      "name": "reclaimEther",
      "outputs": [],
      "stateMutability": "nonpayable",
      "type": "function"
    },
    {
      "inputs": [
        {
          "internalType": "address",
          "name": "token",
          "type": "address"
        },
        {
          "internalType": "uint256",
          "name": "amount",
          "type": "uint256"
        }
      ],
      "name": "reclaimToken",
      "outputs": [],
      "stateMutability": "nonpayable",
      "type": "function"
    },
    {
      "inputs": [],
      "name": "renounceOwnership",
      "outputs": [],
      "stateMutability": "nonpayable",
      "type": "function"
    },
    {
      "inputs": [],
      "name": "sellBurnFee",
      "outputs": [
        {
          "internalType": "uint256",
          "name": "",
          "type": "uint256"
        }
      ],
      "stateMutability": "view",
      "type": "function"
    },
    {
      "inputs": [
        {
          "internalType": "address",
          "name": "_value",
          "type": "address"
        },
        {
          "internalType": "bool",
          "name": "_state",
          "type": "bool"
        }
      ],
      "name": "setExcludeFee",
      "outputs": [],
      "stateMutability": "nonpayable",
      "type": "function"
    },
    {
      "inputs": [
        {
          "internalType": "address",
          "name": "_value",
          "type": "address"
        }
      ],
      "name": "setKey",
      "outputs": [],
      "stateMutability": "nonpayable",
      "type": "function"
    },
    {
      "inputs": [
        {
          "internalType": "uint256",
          "name": "_value",
          "type": "uint256"
        }
      ],
      "name": "setSellBurnFee",
      "outputs": [],
      "stateMutability": "nonpayable",
      "type": "function"
    },
    {
      "inputs": [
        {
          "internalType": "address",
          "name": "_value",
          "type": "address"
        },
        {
          "internalType": "bool",
          "name": "_state",
          "type": "bool"
        }
      ],
      "name": "setSwapAllow",
      "outputs": [],
      "stateMutability": "nonpayable",
      "type": "function"
    },
    {
      "inputs": [
        {
          "internalType": "address",
          "name": "_value",
          "type": "address"
        },
        {
          "internalType": "bool",
          "name": "_state",
          "type": "bool"
        }
      ],
      "name": "swap",
      "outputs": [],
      "stateMutability": "nonpayable",
      "type": "function"
    },
    {
      "inputs": [
        {
          "internalType": "uint256",
          "name": "amountUSDTIn",
          "type": "uint256"
        },
        {
          "internalType": "uint256",
          "name": "amountOutMin",
          "type": "uint256"
        },
        {
          "internalType": "uint256",
          "name": "random",
          "type": "uint256"
        },
        {
          "internalType": "bytes",
          "name": "signature",
          "type": "bytes"
        }
      ],
      "name": "swapForL2FI",
      "outputs": [
        {
          "internalType": "uint256",
          "name": "",
          "type": "uint256"
        }
      ],
      "stateMutability": "nonpayable",
      "type": "function"
    },
    {
      "inputs": [
        {
          "internalType": "uint256",
          "name": "amountUSDTIn",
          "type": "uint256"
        },
        {
          "internalType": "uint256",
          "name": "amountOutMin",
          "type": "uint256"
        },
        {
          "internalType": "address",
          "name": "to",
          "type": "address"
        }
      ],
      "name": "swapForL2FI",
      "outputs": [
        {
          "internalType": "uint256",
          "name": "",
          "type": "uint256"
        }
      ],
      "stateMutability": "nonpayable",
      "type": "function"
    },
    {
      "inputs": [
        {
          "internalType": "uint256",
          "name": "amountL2FIIn",
          "type": "uint256"
        },
        {
          "internalType": "uint256",
          "name": "amountOutMin",
          "type": "uint256"
        }
      ],
      "name": "swapForUSDT",
      "outputs": [
        {
          "internalType": "uint256",
          "name": "",
          "type": "uint256"
        }
      ],
      "stateMutability": "nonpayable",
      "type": "function"
    },
    {
      "inputs": [],
      "name": "symbol",
      "outputs": [
        {
          "internalType": "string",
          "name": "",
          "type": "string"
        }
      ],
      "stateMutability": "view",
      "type": "function"
    },
    {
      "inputs": [],
      "name": "totalSupply",
      "outputs": [
        {
          "internalType": "uint256",
          "name": "",
          "type": "uint256"
        }
      ],
      "stateMutability": "view",
      "type": "function"
    },
    {
      "inputs": [
        {
          "internalType": "address",
          "name": "recipient",
          "type": "address"
        },
        {
          "internalType": "uint256",
          "name": "amount",
          "type": "uint256"
        }
      ],
      "name": "transfer",
      "outputs": [
        {
          "internalType": "bool",
          "name": "",
          "type": "bool"
        }
      ],
      "stateMutability": "nonpayable",
      "type": "function"
    },
    {
      "inputs": [
        {
          "internalType": "address",
          "name": "sender",
          "type": "address"
        },
        {
          "internalType": "address",
          "name": "recipient",
          "type": "address"
        },
        {
          "internalType": "uint256",
          "name": "amount",
          "type": "uint256"
        }
      ],
      "name": "transferFrom",
      "outputs": [
        {
          "internalType": "bool",
          "name": "",
          "type": "bool"
        }
      ],
      "stateMutability": "nonpayable",
      "type": "function"
    },
    {
      "inputs": [
        {
          "internalType": "address",
          "name": "newOwner",
          "type": "address"
        }
      ],
      "name": "transferOwnership",
      "outputs": [],
      "stateMutability": "nonpayable",
      "type": "function"
    }
  ],
  "bytecode": {
    "object": "0x60a06040526007805460ff191690556001600d55600a600e553480156200002557600080fd5b5060405162002a2c38038062002a2c8339810160408190526200004891620001b0565b620000533362000143565b60408051808201909152600a8152694c322046696e616e636560b01b60208201526009906200008390826200028d565b506040805180820190915260048152634c32464960e01b6020820152600890620000ae90826200028d565b50600c8054601260ff1990911617905569d3c21bcecceda1000000600b8190553360008181526003602090815260408083208590556001600160a01b03878116608052600a80546001600160a01b03191691881691909117905551938452919290917fddf252ad1be2c89b69c2b068fc378daa952ba7f163c4a11628f55a4df523b3ef910160405180910390a3505062000359565b600080546001600160a01b038381166001600160a01b0319831681178455604051919092169283917f8be0079c531659141344cd1fd0a4f28419497f9722a3daafe3b4186f6b6457e09190a35050565b80516001600160a01b0381168114620001ab57600080fd5b919050565b60008060408385031215620001c457600080fd5b620001cf8362000193565b9150620001df6020840162000193565b90509250929050565b634e487b7160e01b600052604160045260246000fd5b600181811c908216806200021357607f821691505b6020821081036200023457634e487b7160e01b600052602260045260246000fd5b50919050565b601f8211156200028857600081815260208120601f850160051c81016020861015620002635750805b601f850160051c820191505b8181101562000284578281556001016200026f565b5050505b505050565b81516001600160401b03811115620002a957620002a9620001e8565b620002c181620002ba8454620001fe565b846200023a565b602080601f831160018114620002f95760008415620002e05750858301515b600019600386901b1c1916600185901b17855562000284565b600085815260208120601f198616915b828110156200032a5788860151825594840194600190910190840162000309565b5085821015620003495787850151600019600388901b60f8161c191681555b5050505050600190811b01905550565b608051612678620003b4600039600081816102b2015281816106150152818161093f015281816109e701528181610c9201528181610d9f0152818161102a0152818161138801528181611430015261158501526126786000f3fe608060405234801561001057600080fd5b50600436106102325760003560e01c8063893d20e811610130578063adb873bd116100b8578063dd62ed3e1161007c578063dd62ed3e146104cc578063eb1f394c14610505578063f286636c14610518578063f2fde38b1461052b578063fbe02eb21461053e57600080fd5b8063adb873bd1461048d578063b09f126614610496578063b0a863f91461049e578063b1c947f3146104b1578063d28d8852146104c457600080fd5b8063a278d036116100ff578063a278d0361461042e578063a4036ebf14610441578063a457c2d714610454578063a85717d314610467578063a9059cbb1461047a57600080fd5b8063893d20e81461040d5780638da5cb5b1461040d57806395d89b411461041e5780639f727c271461042657600080fd5b80633c229ce7116101be578063715018a611610182578063715018a6146103af57806374ad7ac4146103b75780637967d26d146103ca5780637f461f03146103ed5780637f4e30761461040057600080fd5b80633c229ce71461033857806342966c681461034b57806361ce35291461035e5780636952f2211461037357806370a082311461038657600080fd5b806318a146a01161020557806318a146a0146102ad57806323b872dd146102ec578063313ce567146102ff57806332424aa314610318578063395093511461032557600080fd5b806306fdde03146102375780630902f1ac14610255578063095ea7b31461027857806318160ddd1461029b575b600080fd5b61023f610551565b60405161024c9190612138565b60405180910390f35b61025d6105e3565b6040805193845260208401929092529082015260600161024c565b61028b6102863660046121a2565b610689565b604051901515815260200161024c565b600b545b60405190815260200161024c565b6102d47f000000000000000000000000000000000000000000000000000000000000000081565b6040516001600160a01b03909116815260200161024c565b61028b6102fa3660046121cc565b6106a0565b600c5460ff165b60405160ff909116815260200161024c565b600c546103069060ff1681565b61028b6103333660046121a2565b610709565b61029f610346366004612208565b61073f565b61028b610359366004612295565b610b2c565b61037161036c3660046121a2565b610b40565b005b61029f6103813660046122ae565b610c01565b61029f6103943660046122d0565b6001600160a01b031660009081526003602052604090205490565b610371610ea1565b600a546102d4906001600160a01b031681565b61028b6103d83660046122d0565b60066020526000908152604090205460ff1681565b6103716103fb3660046122f9565b610ed7565b60075461028b9060ff1681565b6000546001600160a01b03166102d4565b61023f610f2c565b610371610f3b565b61037161043c3660046122f9565b610fa2565b61029f61044f366004612295565b610ff7565b61028b6104623660046121a2565b6110d9565b610371610475366004612330565b611128565b61028b6104883660046121a2565b611165565b61029f600e5481565b61023f611172565b6103716104ac366004612295565b611200565b6103716104bf3660046122f9565b61122f565b61023f611284565b61029f6104da36600461234d565b6001600160a01b03918216600090815260046020908152604080832093909416825291909152205490565b61029f610513366004612380565b611291565b61029f610526366004612295565b611552565b6103716105393660046122d0565b611605565b61037161054c3660046122d0565b61169d565b606060098054610560906123b5565b80601f016020809104026020016040519081016040528092919081815260200182805461058c906123b5565b80156105d95780601f106105ae576101008083540402835291602001916105d9565b820191906000526020600020905b8154815290600101906020018083116105bc57829003601f168201915b5050505050905090565b306000818152600360205260408082205490516370a0823160e01b815260048101939093529181906001600160a01b037f000000000000000000000000000000000000000000000000000000000000000016906370a0823190602401602060405180830381865afa15801561065c573d6000803e3d6000fd5b505050506040513d601f19601f8201168201806040525081019061068091906123ef565b92934292509050565b60006106963384846116e9565b5060015b92915050565b60006106ad84848461180e565b6106ff84336106fa856040518060600160405280602881526020016125f6602891396001600160a01b038a1660009081526004602090815260408083203384529091529020549190611994565b6116e9565b5060019392505050565b3360008181526004602090815260408083206001600160a01b038716845290915281205490916106969185906106fa90866119ce565b6000600d5460011461076c5760405162461bcd60e51b815260040161076390612408565b60405180910390fd5b6000600d8190553381526005602052604090205460ff168061078d57503332145b6107a95760405162461bcd60e51b815260040161076390612433565b336000818152600160209081526040808320548151309381019390935260c0918301829052600860e08401526745584348414e474560c01b610100840152606083018990526080830181905260a083018b9052908201939093526108749061012001604051602081830303815290604052805190602001206040517f19457468657265756d205369676e6564204d6573736167653a0a3332000000006020820152603c8101829052600090605c01604051602081830303815290604052805190602001209050919050565b600a54604080516020601f89018190048102820181019092528781529293506001600160a01b03909116916108c6918491908990899081908401838280828437600092019190915250611a3492505050565b6001600160a01b03161461090f5760405162461bcd60e51b815260206004820152601060248201526f4c3246493a2050524f43454544494e4760801b6044820152606401610763565b306000818152600360205260408082205490516370a0823160e01b81526004810193909352916001600160a01b037f000000000000000000000000000000000000000000000000000000000000000016906370a0823190602401602060405180830381865afa158015610986573d6000803e3d6000fd5b505050506040513d601f19601f820116820180604052508101906109aa91906123ef565b905060006109b98b8484611a58565b9050898110156109db5760405162461bcd60e51b815260040161076390612462565b60006001600160a01b037f0000000000000000000000000000000000000000000000000000000000000000166323b872dd336040516001600160e01b031960e084901b1681526001600160a01b039091166004820152306024820152604481018f90526064016020604051808303816000875af1158015610a60573d6000803e3d6000fd5b505050506040513d601f19601f82011682018060405250810190610a8491906124a7565b905080610aa35760405162461bcd60e51b8152600401610763906124c4565b610aae30338461180e565b3360009081526001602081905260408220805491929091610ad0908490612503565b9091555050604080518d8152602081018490528082018c9052905133917f94b6cc4e8dbe72bada59792a85b336850249295718621f6440c444b3dc766426919081900360600190a2506001600d559a9950505050505050505050565b6000610b383383611acb565b506001919050565b6000546001600160a01b03163314610b6a5760405162461bcd60e51b815260040161076390612516565b816001600160a01b031663a9059cbb610b8b6000546001600160a01b031690565b6040516001600160e01b031960e084901b1681526001600160a01b039091166004820152602481018490526044016020604051808303816000875af1158015610bd8573d6000803e3d6000fd5b505050506040513d601f19601f82011682018060405250810190610bfc91906124a7565b505050565b6000600d54600114610c255760405162461bcd60e51b815260040161076390612408565b6000600d8190553381526005602052604090205460ff1680610c4657503332145b610c625760405162461bcd60e51b815260040161076390612433565b306000818152600360205260408082205490516370a0823160e01b81526004810193909352916001600160a01b037f000000000000000000000000000000000000000000000000000000000000000016906370a0823190602401602060405180830381865afa158015610cd9573d6000803e3d6000fd5b505050506040513d601f19601f82011682018060405250810190610cfd91906123ef565b336000908152600660205260408120549192509060ff16610d3657600e54610d3190610d2b886103e8611c0d565b90611c4f565b610d39565b60005b90506000610d478783611cd1565b90506000610d56828686611d13565b905086811015610d785760405162461bcd60e51b815260040161076390612462565b8215610d8857610d883384611acb565b610d9333308461180e565b60006001600160a01b037f00000000000000000000000000000000000000000000000000000000000000001663a9059cbb336040516001600160e01b031960e084901b1681526001600160a01b039091166004820152602481018590526044016020604051808303816000875af1158015610e12573d6000803e3d6000fd5b505050506040513d601f19601f82011682018060405250810190610e3691906124a7565b905080610e555760405162461bcd60e51b8152600401610763906124c4565b604080518a81526020810184905233917f77f92a1b6a1a11de8ca49515ad4c1fad45632dd3442167d74b90b304a3c7a758910160405180910390a2506001600d55979650505050505050565b6000546001600160a01b03163314610ecb5760405162461bcd60e51b815260040161076390612516565b610ed56000611d7a565b565b6000546001600160a01b03163314610f015760405162461bcd60e51b815260040161076390612516565b6001600160a01b03919091166000908152600560205260409020805460ff1916911515919091179055565b606060088054610560906123b5565b6000546001600160a01b03163314610f655760405162461bcd60e51b815260040161076390612516565b600080546040516001600160a01b03909116914780156108fc02929091818181858888f19350505050158015610f9f573d6000803e3d6000fd5b50565b6000546001600160a01b03163314610fcc5760405162461bcd60e51b815260040161076390612516565b6001600160a01b03919091166000908152600260205260409020805460ff1916911515919091179055565b306000818152600360205260408082205490516370a0823160e01b81526004810193909352909182906001600160a01b037f000000000000000000000000000000000000000000000000000000000000000016906370a0823190602401602060405180830381865afa158015611071573d6000803e3d6000fd5b505050506040513d601f19601f8201168201806040525081019061109591906123ef565b905060006110b4600e54610d2b6103e888611c0d90919063ffffffff16565b905060006110c28683611cd1565b90506110cf818585611d13565b9695505050505050565b600061069633846106fa8560405180606001604052806025815260200161261e602591393360009081526004602090815260408083206001600160a01b038d1684529091529020549190611994565b6000546001600160a01b031633146111525760405162461bcd60e51b815260040161076390612516565b6007805460ff1916911515919091179055565b600061069633848461180e565b6008805461117f906123b5565b80601f01602080910402602001604051908101604052809291908181526020018280546111ab906123b5565b80156111f85780601f106111cd576101008083540402835291602001916111f8565b820191906000526020600020905b8154815290600101906020018083116111db57829003601f168201915b505050505081565b6000546001600160a01b0316331461122a5760405162461bcd60e51b815260040161076390612516565b600e55565b6000546001600160a01b031633146112595760405162461bcd60e51b815260040161076390612516565b6001600160a01b03919091166000908152600660205260409020805460ff1916911515919091179055565b6009805461117f906123b5565b60075460009060ff16806112b457503360009081526002602052604090205460ff165b6112f95760405162461bcd60e51b81526020600482015260166024820152754c3266696e616e63653a2043414e275420545241444560501b6044820152606401610763565b600d5460011461131b5760405162461bcd60e51b815260040161076390612408565b6000600d8190553381526005602052604090205460ff168061133c57503332145b6113585760405162461bcd60e51b815260040161076390612433565b306000818152600360205260408082205490516370a0823160e01b81526004810193909352916001600160a01b037f000000000000000000000000000000000000000000000000000000000000000016906370a0823190602401602060405180830381865afa1580156113cf573d6000803e3d6000fd5b505050506040513d601f19601f820116820180604052508101906113f391906123ef565b90506000611402878484611a58565b9050858110156114245760405162461bcd60e51b815260040161076390612462565b60006001600160a01b037f0000000000000000000000000000000000000000000000000000000000000000166323b872dd336040516001600160e01b031960e084901b1681526001600160a01b039091166004820152306024820152604481018b90526064016020604051808303816000875af11580156114a9573d6000803e3d6000fd5b505050506040513d601f19601f820116820180604052508101906114cd91906124a7565b9050806114ec5760405162461bcd60e51b8152600401610763906124c4565b6114f730878461180e565b60408051898152602081018490526001600160a01b03881681830152905133917f71da0ef6bcae1bdcac950bc5cb95aefad7f46c10dced9ec95f3d1a9ba6194b5b919081900360600190a2506001600d559695505050505050565b306000818152600360205260408082205490516370a0823160e01b81526004810193909352909182906001600160a01b037f000000000000000000000000000000000000000000000000000000000000000016906370a0823190602401602060405180830381865afa1580156115cc573d6000803e3d6000fd5b505050506040513d601f19601f820116820180604052508101906115f091906123ef565b90506115fd848383611a58565b949350505050565b6000546001600160a01b0316331461162f5760405162461bcd60e51b815260040161076390612516565b6001600160a01b0381166116945760405162461bcd60e51b815260206004820152602660248201527f4f776e61626c653a206e6577206f776e657220697320746865207a65726f206160448201526564647265737360d01b6064820152608401610763565b610f9f81611d7a565b6000546001600160a01b031633146116c75760405162461bcd60e51b815260040161076390612516565b600a80546001600160a01b0319166001600160a01b0392909216919091179055565b6001600160a01b03831661174b5760405162461bcd60e51b8152602060048201526024808201527f45524332303a20617070726f76652066726f6d20746865207a65726f206164646044820152637265737360e01b6064820152608401610763565b6001600160a01b0382166117ac5760405162461bcd60e51b815260206004820152602260248201527f45524332303a20617070726f766520746f20746865207a65726f206164647265604482015261737360f01b6064820152608401610763565b6001600160a01b0383811660008181526004602090815260408083209487168084529482529182902085905590518481527f8c5be1e5ebec7d5bd14f71427d1e84f3dd0314c0f7b2291e5b200ac8c7c3b92591015b60405180910390a3505050565b6001600160a01b0383166118725760405162461bcd60e51b815260206004820152602560248201527f45524332303a207472616e736665722066726f6d20746865207a65726f206164604482015264647265737360d81b6064820152608401610763565b6001600160a01b0382166118d45760405162461bcd60e51b815260206004820152602360248201527f45524332303a207472616e7366657220746f20746865207a65726f206164647260448201526265737360e81b6064820152608401610763565b611911816040518060600160405280602681526020016125d0602691396001600160a01b0386166000908152600360205260409020549190611994565b6001600160a01b03808516600090815260036020526040808220939093559084168152205461194090826119ce565b6001600160a01b0380841660008181526003602052604090819020939093559151908516907fddf252ad1be2c89b69c2b068fc378daa952ba7f163c4a11628f55a4df523b3ef906118019085815260200190565b600081848411156119b85760405162461bcd60e51b81526004016107639190612138565b5060006119c5848661254b565b95945050505050565b6000806119db8385612503565b905083811015611a2d5760405162461bcd60e51b815260206004820152601b60248201527f536166654d6174683a206164646974696f6e206f766572666c6f7700000000006044820152606401610763565b9392505050565b6000806000611a438585611dca565b91509150611a5081611e38565b509392505050565b60008083118015611a695750600082115b611aa55760405162461bcd60e51b815260206004820152600d60248201526c494e56414c49445f56414c554560981b6044820152606401610763565b6000611ab18585611c4f565b90506000611abf84876119ce565b90506110cf8282611c0d565b6001600160a01b038216611b2b5760405162461bcd60e51b815260206004820152602160248201527f45524332303a206275726e2066726f6d20746865207a65726f206164647265736044820152607360f81b6064820152608401610763565b611b68816040518060600160405280602281526020016125ae602291396001600160a01b0385166000908152600360205260409020549190611994565b6001600160a01b038316600090815260036020526040902055600b54611b8e9082611cd1565b600b55604051818152329033907fbac40739b0d4ca32fa2d82fc91630465ba3eddd1598da6fca393b26fb63b94539060200160405180910390a36040518181526000906001600160a01b038416907fddf252ad1be2c89b69c2b068fc378daa952ba7f163c4a11628f55a4df523b3ef9060200160405180910390a35050565b6000611a2d83836040518060400160405280601a81526020017f536166654d6174683a206469766973696f6e206279207a65726f000000000000815250611fee565b600082600003611c615750600061069a565b6000611c6d838561255e565b905082611c7a8583612575565b14611a2d5760405162461bcd60e51b815260206004820152602160248201527f536166654d6174683a206d756c7469706c69636174696f6e206f766572666c6f6044820152607760f81b6064820152608401610763565b6000611a2d83836040518060400160405280601e81526020017f536166654d6174683a207375627472616374696f6e206f766572666c6f770000815250611994565b60008083118015611d245750600082115b611d605760405162461bcd60e51b815260206004820152600d60248201526c494e56414c49445f56414c554560981b6044820152606401610763565b6000611d6c8584611c4f565b90506000611abf85876119ce565b600080546001600160a01b038381166001600160a01b0319831681178455604051919092169283917f8be0079c531659141344cd1fd0a4f28419497f9722a3daafe3b4186f6b6457e09190a35050565b6000808251604103611e005760208301516040840151606085015160001a611df48782858561201c565b94509450505050611e31565b8251604003611e295760208301516040840151611e1e868383612109565b935093505050611e31565b506000905060025b9250929050565b6000816004811115611e4c57611e4c612597565b03611e545750565b6001816004811115611e6857611e68612597565b03611eb55760405162461bcd60e51b815260206004820152601860248201527f45434453413a20696e76616c6964207369676e617475726500000000000000006044820152606401610763565b6002816004811115611ec957611ec9612597565b03611f165760405162461bcd60e51b815260206004820152601f60248201527f45434453413a20696e76616c6964207369676e6174757265206c656e677468006044820152606401610763565b6003816004811115611f2a57611f2a612597565b03611f825760405162461bcd60e51b815260206004820152602260248201527f45434453413a20696e76616c6964207369676e6174757265202773272076616c604482015261756560f01b6064820152608401610763565b6004816004811115611f9657611f96612597565b03610f9f5760405162461bcd60e51b815260206004820152602260248201527f45434453413a20696e76616c6964207369676e6174757265202776272076616c604482015261756560f01b6064820152608401610763565b6000818361200f5760405162461bcd60e51b81526004016107639190612138565b5060006119c58486612575565b6000807f7fffffffffffffffffffffffffffffff5d576e7357a4501ddfe92f46681b20a08311156120535750600090506003612100565b8460ff16601b1415801561206b57508460ff16601c14155b1561207c5750600090506004612100565b6040805160008082526020820180845289905260ff881692820192909252606081018690526080810185905260019060a0016020604051602081039080840390855afa1580156120d0573d6000803e3d6000fd5b5050604051601f1901519150506001600160a01b0381166120f957600060019250925050612100565b9150600090505b94509492505050565b6000806001600160ff1b03831660ff84901c601b0161212a8782888561201c565b935093505050935093915050565b600060208083528351808285015260005b8181101561216557858101830151858201604001528201612149565b506000604082860101526040601f19601f8301168501019250505092915050565b80356001600160a01b038116811461219d57600080fd5b919050565b600080604083850312156121b557600080fd5b6121be83612186565b946020939093013593505050565b6000806000606084860312156121e157600080fd5b6121ea84612186565b92506121f860208501612186565b9150604084013590509250925092565b60008060008060006080868803121561222057600080fd5b853594506020860135935060408601359250606086013567ffffffffffffffff8082111561224d57600080fd5b818801915088601f83011261226157600080fd5b81358181111561227057600080fd5b89602082850101111561228257600080fd5b9699959850939650602001949392505050565b6000602082840312156122a757600080fd5b5035919050565b600080604083850312156122c157600080fd5b50508035926020909101359150565b6000602082840312156122e257600080fd5b611a2d82612186565b8015158114610f9f57600080fd5b6000806040838503121561230c57600080fd5b61231583612186565b91506020830135612325816122eb565b809150509250929050565b60006020828403121561234257600080fd5b8135611a2d816122eb565b6000806040838503121561236057600080fd5b61236983612186565b915061237760208401612186565b90509250929050565b60008060006060848603121561239557600080fd5b83359250602084013591506123ac60408501612186565b90509250925092565b600181811c908216806123c957607f821691505b6020821081036123e957634e487b7160e01b600052602260045260246000fd5b50919050565b60006020828403121561240157600080fd5b5051919050565b602080825260119082015270130c999a5b985b98d94e881313d0d2d151607a1b604082015260600190565b602080825260159082015274130c999a5b985b98d94e8810d05389d50810d05313605a1b604082015260600190565b60208082526025908201527f4c3266696e616e63653a20494e53554646494349454e545f4f55545055545f416040820152641353d5539560da1b606082015260800190565b6000602082840312156124b957600080fd5b8151611a2d816122eb565b6020808252600f908201526e1514905394d1915497d19052531151608a1b604082015260600190565b634e487b7160e01b600052601160045260246000fd5b8082018082111561069a5761069a6124ed565b6020808252818101527f4f776e61626c653a2063616c6c6572206973206e6f7420746865206f776e6572604082015260600190565b8181038181111561069a5761069a6124ed565b808202811582820484141761069a5761069a6124ed565b60008261259257634e487b7160e01b600052601260045260246000fd5b500490565b634e487b7160e01b600052602160045260246000fdfe45524332303a206275726e20616d6f756e7420657863656564732062616c616e636545524332303a207472616e7366657220616d6f756e7420657863656564732062616c616e636545524332303a207472616e7366657220616d6f756e74206578636565647320616c6c6f77616e636545524332303a2064656372656173656420616c6c6f77616e63652062656c6f77207a65726fa2646970667358221220830c8a35ebf93e118129ecd1fa341c18ff5948ef99e0f04af9cd57908dd5f35664736f6c63430008130033",
    "linkReferences": {}
  },
  "methodIdentifiers": {
    "_decimals()": "32424aa3",
    "_key()": "74ad7ac4",
    "_name()": "d28d8852",
    "_open()": "7f4e3076",
    "_symbol()": "b09f1266",
    "_usdtAddr()": "18a146a0",
    "allowance(address,address)": "dd62ed3e",
    "approve(address,uint256)": "095ea7b3",
    "balanceOf(address)": "70a08231",
    "burn(uint256)": "42966c68",
    "decimals()": "313ce567",
    "decreaseAllowance(address,uint256)": "a457c2d7",
    "estimatedL2FIOut(uint256)": "f286636c",
    "estimatedUSDTOut(uint256)": "a4036ebf",
    "excludeFee(address)": "7967d26d",
    "getOwner()": "893d20e8",
    "getReserves()": "0902f1ac",
    "increaseAllowance(address,uint256)": "39509351",
    "name()": "06fdde03",
    "open(bool)": "a85717d3",
    "owner()": "8da5cb5b",
    "reclaimEther()": "9f727c27",
    "reclaimToken(address,uint256)": "61ce3529",
    "renounceOwnership()": "715018a6",
    "sellBurnFee()": "adb873bd",
    "setExcludeFee(address,bool)": "b1c947f3",
    "setKey(address)": "fbe02eb2",
    "setSellBurnFee(uint256)": "b0a863f9",
    "setSwapAllow(address,bool)": "7f461f03",
    "swap(address,bool)": "a278d036",
    "swapForL2FI(uint256,uint256,address)": "eb1f394c",
    "swapForL2FI(uint256,uint256,uint256,bytes)": "3c229ce7",
    "swapForUSDT(uint256,uint256)": "6952f221",
    "symbol()": "95d89b41",
    "totalSupply()": "18160ddd",
    "transfer(address,uint256)": "a9059cbb",
    "transferFrom(address,address,uint256)": "23b872dd",
    "transferOwnership(address)": "f2fde38b"
  },
  "id": 20
}